:1000000012C018951895189518954FC018956EC080
:1000100018955AC01895189518951895189518950B
:100020001895189518950FED0DBF00E002BD03E07F
:100030000FBD0CE10EBD0FE70BBD04EF0ABD00E8DC
:1000400009BF00E002B903E309B906E003B900E41F
:100050000BB908ED0AB98A9AD09AD19A8E9AB89AB1
:10006000B99ABA9ABB9ABC9ABD9A04E5009360000B
:1000700005E60093610003E70093620004E7009344
:1000800063000FE50093640005E50093650001E45B
:100090000093660002E50093670004E500936800A2
:1000A000C9E6D0E078940000FECF0F931F930FB7FE
:1000B0000F93C59820E0E0E6F0E00AE20CB90F915A
:1000C0000FBF1F910F9118950F931F930FB70F93A9
:1000D000C03610E0D10729F0EC17FD0710F40191AC
:1000E0000CB90F910FBF1F910F9118950F931F938C
:1000F0000FB70F9300E00DBD0CBD0BB13CB10C71FF
:10010000003051F5313309F4829A323309F4C89A38
:10011000333309F4C99A343309F4869A353309F430
:10012000B09A363309F4B19A373309F4B29A3833B6
:1001300009F4B39A393309F4B49A203019F4C0E6BB
:10014000D0E02FEFC03810E0D10708F439930F91B9
:0C0150000FBF1F910F911895C59AF9CFB1
:00000001FF
